{
  "contractName": "Acte",
  "abi": [
    {
      "anonymous": false,
      "inputs": [
        {
          "indexed": false,
          "internalType": "uint256",
          "name": "id",
          "type": "uint256"
        },
        {
          "indexed": false,
          "internalType": "string",
          "name": "numacte",
          "type": "string"
        },
        {
          "indexed": false,
          "internalType": "address",
          "name": "createdBy",
          "type": "address"
        }
      ],
      "name": "ActeCreated",
      "type": "event"
    },
    {
      "anonymous": false,
      "inputs": [
        {
          "indexed": false,
          "internalType": "uint256",
          "name": "id",
          "type": "uint256"
        },
        {
          "indexed": false,
          "internalType": "string",
          "name": "numacte",
          "type": "string"
        },
        {
          "indexed": false,
          "internalType": "enum Acte.Status",
          "name": "status",
          "type": "uint8"
        }
      ],
      "name": "ActeUpdated",
      "type": "event"
    },
    {
      "inputs": [
        {
          "internalType": "uint256",
          "name": "",
          "type": "uint256"
        }
      ],
      "name": "actes",
      "outputs": [
        {
          "internalType": "uint256",
          "name": "id",
          "type": "uint256"
        },
        {
          "internalType": "string",
          "name": "numacte",
          "type": "string"
        },
        {
          "internalType": "string",
          "name": "cnipere",
          "type": "string"
        },
        {
          "internalType": "string",
          "name": "cnimere",
          "type": "string"
        },
        {
          "internalType": "string",
          "name": "cnitemoin1",
          "type": "string"
        },
        {
          "internalType": "string",
          "name": "cnitemoin2",
          "type": "string"
        },
        {
          "internalType": "string",
          "name": "dateetablissementacte",
          "type": "string"
        },
        {
          "internalType": "uint256",
          "name": "idregistre",
          "type": "uint256"
        },
        {
          "internalType": "uint256",
          "name": "idformation",
          "type": "uint256"
        },
        {
          "internalType": "enum Acte.Type",
          "name": "acteType",
          "type": "uint8"
        },
        {
          "internalType": "enum Acte.Status",
          "name": "status",
          "type": "uint8"
        },
        {
          "internalType": "address",
          "name": "createdBy",
          "type": "address"
        }
      ],
      "stateMutability": "view",
      "type": "function",
      "constant": true
    },
    {
      "inputs": [],
      "name": "nextId",
      "outputs": [
        {
          "internalType": "uint256",
          "name": "",
          "type": "uint256"
        }
      ],
      "stateMutability": "view",
      "type": "function",
      "constant": true
    },
    {
      "inputs": [
        {
          "internalType": "string",
          "name": "numacte",
          "type": "string"
        },
        {
          "internalType": "string",
          "name": "cnipere",
          "type": "string"
        },
        {
          "internalType": "string",
          "name": "cnimere",
          "type": "string"
        },
        {
          "internalType": "string",
          "name": "cnitemoin1",
          "type": "string"
        },
        {
          "internalType": "string",
          "name": "cnitemoin2",
          "type": "string"
        },
        {
          "internalType": "string",
          "name": "dateetablissementacte",
          "type": "string"
        },
        {
          "internalType": "uint256",
          "name": "idregistre",
          "type": "uint256"
        },
        {
          "internalType": "uint256",
          "name": "idformation",
          "type": "uint256"
        },
        {
          "internalType": "enum Acte.Type",
          "name": "acteType",
          "type": "uint8"
        }
      ],
      "name": "createActe",
      "outputs": [],
      "stateMutability": "nonpayable",
      "type": "function"
    },
    {
      "inputs": [
        {
          "internalType": "uint256",
          "name": "id",
          "type": "uint256"
        },
        {
          "internalType": "enum Acte.Status",
          "name": "status",
          "type": "uint8"
        }
      ],
      "name": "updateStatus",
      "outputs": [],
      "stateMutability": "nonpayable",
      "type": "function"
    },
    {
      "inputs": [
        {
          "internalType": "uint256",
          "name": "id",
          "type": "uint256"
        }
      ],
      "name": "getActe",
      "outputs": [
        {
          "components": [
            {
              "internalType": "uint256",
              "name": "id",
              "type": "uint256"
            },
            {
              "internalType": "string",
              "name": "numacte",
              "type": "string"
            },
            {
              "internalType": "string",
              "name": "cnipere",
              "type": "string"
            },
            {
              "internalType": "string",
              "name": "cnimere",
              "type": "string"
            },
            {
              "internalType": "string",
              "name": "cnitemoin1",
              "type": "string"
            },
            {
              "internalType": "string",
              "name": "cnitemoin2",
              "type": "string"
            },
            {
              "internalType": "string",
              "name": "dateetablissementacte",
              "type": "string"
            },
            {
              "internalType": "uint256",
              "name": "idregistre",
              "type": "uint256"
            },
            {
              "internalType": "uint256",
              "name": "idformation",
              "type": "uint256"
            },
            {
              "internalType": "enum Acte.Type",
              "name": "acteType",
              "type": "uint8"
            },
            {
              "internalType": "enum Acte.Status",
              "name": "status",
              "type": "uint8"
            },
            {
              "internalType": "address",
              "name": "createdBy",
              "type": "address"
            }
          ],
          "internalType": "struct Acte.ActeStruct",
          "name": "",
          "type": "tuple"
        }
      ],
      "stateMutability": "view",
      "type": "function",
      "constant": true
    }
  ],
  "bytecode": "0x60806040526001805534801561001457600080fd5b50611bcd806100246000396000f3fe608060405234801561001057600080fd5b50600436106100575760003560e01c80633a1b3d311461005c5780633f3656821461007857806361b8ce8c14610094578063b5e95f53146100b2578063c7b2c2bc146100ed575b600080fd5b610076600480360381019061007191906113bb565b61011d565b005b610092600480360381019061008d919061123c565b6102f7565b005b61009c610622565b6040516100a9919061170a565b60405180910390f35b6100cc60048036038101906100c79190611392565b610628565b6040516100e49c9b9a99989796959493929190611763565b60405180910390f35b61010760048036038101906101029190611392565b610a02565b60405161011491906116e8565b60405180910390f35b60005b6000805490508110156102b7578260008281548110610168577f4e487b7100000000000000000000000000000000000000000000000000000000600052603260045260246000fd5b90600052602060002090600a02016000015414156102a45781600082815481106101bb577f4e487b7100000000000000000000000000000000000000000000000000000000600052603260045260246000fd5b90600052602060002090600a020160090160016101000a81548160ff02191690836002811115610214577f4e487b7100000000000000000000000000000000000000000000000000000000600052602160045260246000fd5b02179055507fe1f23c28a1702ca8a1ffd98139edad510ff76284e2ea73f209a8564da50f88288360008381548110610275577f4e487b7100000000000000000000000000000000000000000000000000000000600052603260045260246000fd5b90600052602060002090600a02016001018460405161029693929190611847565b60405180910390a1506102f3565b80806102af90611a22565b915050610120565b506040517f08c379a00000000000000000000000000000000000000000000000000000000081526004016102ea906116c8565b60405180910390fd5b5050565b600060405180610180016040528060015481526020018b81526020018a8152602001898152602001888152602001878152602001868152602001858152602001848152602001836002811115610376577f4e487b7100000000000000000000000000000000000000000000000000000000600052602160045260246000fd5b8152602001600060028111156103b5577f4e487b7100000000000000000000000000000000000000000000000000000000600052602160045260246000fd5b81526020013373ffffffffffffffffffffffffffffffffffffffff1681525090806001815401808255809150506001900390600052602060002090600a020160009091909190915060008201518160000155602082015181600101908051906020019061042392919061100b565b50604082015181600201908051906020019061044092919061100b565b50606082015181600301908051906020019061045d92919061100b565b50608082015181600401908051906020019061047a92919061100b565b5060a082015181600501908051906020019061049792919061100b565b5060c08201518160060190805190602001906104b492919061100b565b5060e0820151816007015561010082015181600801556101208201518160090160006101000a81548160ff0219169083600281111561051c577f4e487b7100000000000000000000000000000000000000000000000000000000600052602160045260246000fd5b02179055506101408201518160090160016101000a81548160ff02191690836002811115610573577f4e487b7100000000000000000000000000000000000000000000000000000000600052602160045260246000fd5b02179055506101608201518160090160026101000a81548173ffffffffffffffffffffffffffffffffffffffff021916908373ffffffffffffffffffffffffffffffffffffffff16021790555050507f798416585ba8748d482d94c61f5228a17bdba15dcec103397a94ec5b6c26a51b6001548a336040516105f793929190611725565b60405180910390a16001600081548092919061061290611a22565b9190505550505050505050505050565b60015481565b6000818154811061063857600080fd5b90600052602060002090600a0201600091509050806000015490806001018054610661906119f0565b80601f016020809104026020016040519081016040528092919081815260200182805461068d906119f0565b80156106da5780601f106106af576101008083540402835291602001916106da565b820191906000526020600020905b8154815290600101906020018083116106bd57829003601f168201915b5050505050908060020180546106ef906119f0565b80601f016020809104026020016040519081016040528092919081815260200182805461071b906119f0565b80156107685780601f1061073d57610100808354040283529160200191610768565b820191906000526020600020905b81548152906001019060200180831161074b57829003601f168201915b50505050509080600301805461077d906119f0565b80601f01602080910402602001604051908101604052809291908181526020018280546107a9906119f0565b80156107f65780601f106107cb576101008083540402835291602001916107f6565b820191906000526020600020905b8154815290600101906020018083116107d957829003601f168201915b50505050509080600401805461080b906119f0565b80601f0160208091040260200160405190810160405280929190818152602001828054610837906119f0565b80156108845780601f1061085957610100808354040283529160200191610884565b820191906000526020600020905b81548152906001019060200180831161086757829003601f168201915b505050505090806005018054610899906119f0565b80601f01602080910402602001604051908101604052809291908181526020018280546108c5906119f0565b80156109125780601f106108e757610100808354040283529160200191610912565b820191906000526020600020905b8154815290600101906020018083116108f557829003601f168201915b505050505090806006018054610927906119f0565b80601f0160208091040260200160405190810160405280929190818152602001828054610953906119f0565b80156109a05780601f10610975576101008083540402835291602001916109a0565b820191906000526020600020905b81548152906001019060200180831161098357829003601f168201915b5050505050908060070154908060080154908060090160009054906101000a900460ff16908060090160019054906101000a900460ff16908060090160029054906101000a900473ffffffffffffffffffffffffffffffffffffffff1690508c565b610a0a611091565b60005b600080549050811015610fca578260008281548110610a55577f4e487b7100000000000000000000000000000000000000000000000000000000600052603260045260246000fd5b90600052602060002090600a0201600001541415610fb75760008181548110610aa7577f4e487b7100000000000000000000000000000000000000000000000000000000600052603260045260246000fd5b90600052602060002090600a02016040518061018001604052908160008201548152602001600182018054610adb906119f0565b80601f0160208091040260200160405190810160405280929190818152602001828054610b07906119f0565b8015610b545780601f10610b2957610100808354040283529160200191610b54565b820191906000526020600020905b815481529060010190602001808311610b3757829003601f168201915b50505050508152602001600282018054610b6d906119f0565b80601f0160208091040260200160405190810160405280929190818152602001828054610b99906119f0565b8015610be65780601f10610bbb57610100808354040283529160200191610be6565b820191906000526020600020905b815481529060010190602001808311610bc957829003601f168201915b50505050508152602001600382018054610bff906119f0565b80601f0160208091040260200160405190810160405280929190818152602001828054610c2b906119f0565b8015610c785780601f10610c4d57610100808354040283529160200191610c78565b820191906000526020600020905b815481529060010190602001808311610c5b57829003601f168201915b50505050508152602001600482018054610c91906119f0565b80601f0160208091040260200160405190810160405280929190818152602001828054610cbd906119f0565b8015610d0a5780601f10610cdf57610100808354040283529160200191610d0a565b820191906000526020600020905b815481529060010190602001808311610ced57829003601f168201915b50505050508152602001600582018054610d23906119f0565b80601f0160208091040260200160405190810160405280929190818152602001828054610d4f906119f0565b8015610d9c5780601f10610d7157610100808354040283529160200191610d9c565b820191906000526020600020905b815481529060010190602001808311610d7f57829003601f168201915b50505050508152602001600682018054610db5906119f0565b80601f0160208091040260200160405190810160405280929190818152602001828054610de1906119f0565b8015610e2e5780601f10610e0357610100808354040283529160200191610e2e565b820191906000526020600020905b815481529060010190602001808311610e1157829003601f168201915b5050505050815260200160078201548152602001600882015481526020016009820160009054906101000a900460ff166002811115610e96577f4e487b7100000000000000000000000000000000000000000000000000000000600052602160045260246000fd5b6002811115610ece577f4e487b7100000000000000000000000000000000000000000000000000000000600052602160045260246000fd5b81526020016009820160019054906101000a900460ff166002811115610f1d577f4e487b7100000000000000000000000000000000000000000000000000000000600052602160045260246000fd5b6002811115610f55577f4e487b7100000000000000000000000000000000000000000000000000000000600052602160045260246000fd5b81526020016009820160029054906101000a900473ffffffffffffffffffffffffffffffffffffffff1673ffffffffffffffffffffffffffffffffffffffff1673ffffffffffffffffffffffffffffffffffffffff1681525050915050611006565b8080610fc290611a22565b915050610a0d565b506040517f08c379a0000000000000000000000000000000000000000000000000000000008152600401610ffd906116c8565b60405180910390fd5b919050565b828054611017906119f0565b90600052602060002090601f0160209004810192826110395760008555611080565b82601f1061105257805160ff1916838001178555611080565b82800160010185558215611080579182015b8281111561107f578251825591602001919060010190611064565b5b50905061108d9190611178565b5090565b60405180610180016040528060008152602001606081526020016060815260200160608152602001606081526020016060815260200160608152602001600081526020016000815260200160006002811115611116577f4e487b7100000000000000000000000000000000000000000000000000000000600052602160045260246000fd5b815260200160006002811115611155577f4e487b7100000000000000000000000000000000000000000000000000000000600052602160045260246000fd5b8152602001600073ffffffffffffffffffffffffffffffffffffffff1681525090565b5b80821115611191576000816000905550600101611179565b5090565b60006111a86111a3846118b6565b611885565b9050828152602081018484840111156111c057600080fd5b6111cb8482856119ae565b509392505050565b6000813590506111e281611b60565b92915050565b6000813590506111f781611b70565b92915050565b600082601f83011261120e57600080fd5b813561121e848260208601611195565b91505092915050565b60008135905061123681611b80565b92915050565b60008060008060008060008060006101208a8c03121561125b57600080fd5b60008a013567ffffffffffffffff81111561127557600080fd5b6112818c828d016111fd565b99505060208a013567ffffffffffffffff81111561129e57600080fd5b6112aa8c828d016111fd565b98505060408a013567ffffffffffffffff8111156112c757600080fd5b6112d38c828d016111fd565b97505060608a013567ffffffffffffffff8111156112f057600080fd5b6112fc8c828d016111fd565b96505060808a013567ffffffffffffffff81111561131957600080fd5b6113258c828d016111fd565b95505060a08a013567ffffffffffffffff81111561134257600080fd5b61134e8c828d016111fd565b94505060c061135f8c828d01611227565b93505060e06113708c828d01611227565b9250506101006113828c828d016111e8565b9150509295985092959850929598565b6000602082840312156113a457600080fd5b60006113b284828501611227565b91505092915050565b600080604083850312156113ce57600080fd5b60006113dc85828601611227565b92505060206113ed858286016111d3565b9150509250929050565b61140081611928565b82525050565b61140f81611928565b82525050565b61141e8161198a565b82525050565b61142d8161198a565b82525050565b61143c8161199c565b82525050565b61144b8161199c565b82525050565b600061145c826118fb565b6114668185611906565b93506114768185602086016119bd565b61147f81611b27565b840191505092915050565b6000611495826118fb565b61149f8185611917565b93506114af8185602086016119bd565b6114b881611b27565b840191505092915050565b600081546114d0816119f0565b6114da8186611917565b945060018216600081146114f557600181146115075761153a565b60ff198316865260208601935061153a565b611510856118e6565b60005b8381101561153257815481890152600182019150602081019050611513565b808801955050505b50505092915050565b6000611550600e83611917565b91507f41637465206e6f7420666f756e640000000000000000000000000000000000006000830152602082019050919050565b60006101808301600083015161159c60008601826116aa565b50602083015184820360208601526115b48282611451565b915050604083015184820360408601526115ce8282611451565b915050606083015184820360608601526115e88282611451565b915050608083015184820360808601526116028282611451565b91505060a083015184820360a086015261161c8282611451565b91505060c083015184820360c08601526116368282611451565b91505060e083015161164b60e08601826116aa565b506101008301516116606101008601826116aa565b50610120830151611675610120860182611433565b5061014083015161168a610140860182611415565b5061016083015161169f6101608601826113f7565b508091505092915050565b6116b381611980565b82525050565b6116c281611980565b82525050565b600060208201905081810360008301526116e181611543565b9050919050565b600060208201905081810360008301526117028184611583565b905092915050565b600060208201905061171f60008301846116b9565b92915050565b600060608201905061173a60008301866116b9565b818103602083015261174c818561148a565b905061175b6040830184611406565b949350505050565b600061018082019050611779600083018f6116b9565b818103602083015261178b818e61148a565b9050818103604083015261179f818d61148a565b905081810360608301526117b3818c61148a565b905081810360808301526117c7818b61148a565b905081810360a08301526117db818a61148a565b905081810360c08301526117ef818961148a565b90506117fe60e08301886116b9565b61180c6101008301876116b9565b61181a610120830186611442565b611828610140830185611424565b611836610160830184611406565b9d9c50505050505050505050505050565b600060608201905061185c60008301866116b9565b818103602083015261186e81856114c3565b905061187d6040830184611424565b949350505050565b6000604051905081810181811067ffffffffffffffff821117156118ac576118ab611af8565b5b8060405250919050565b600067ffffffffffffffff8211156118d1576118d0611af8565b5b601f19601f8301169050602081019050919050565b60008190508160005260206000209050919050565b600081519050919050565b600082825260208201905092915050565b600082825260208201905092915050565b600061193382611960565b9050919050565b600081905061194882611b38565b919050565b600081905061195b82611b4c565b919050565b600073ffffffffffffffffffffffffffffffffffffffff82169050919050565b6000819050919050565b60006119958261193a565b9050919050565b60006119a78261194d565b9050919050565b82818337600083830152505050565b60005b838110156119db5780820151818401526020810190506119c0565b838111156119ea576000848401525b50505050565b60006002820490506001821680611a0857607f821691505b60208210811415611a1c57611a1b611ac9565b5b50919050565b6000611a2d82611980565b91507fffffffffffffffffffffffffffffffffffffffffffffffffffffffffffffffff821415611a6057611a5f611a6b565b5b600182019050919050565b7f4e487b7100000000000000000000000000000000000000000000000000000000600052601160045260246000fd5b7f4e487b7100000000000000000000000000000000000000000000000000000000600052602160045260246000fd5b7f4e487b7100000000000000000000000000000000000000000000000000000000600052602260045260246000fd5b7f4e487b7100000000000000000000000000000000000000000000000000000000600052604160045260246000fd5b6000601f19601f8301169050919050565b60038110611b4957611b48611a9a565b5b50565b60038110611b5d57611b5c611a9a565b5b50565b60038110611b6d57600080fd5b50565b60038110611b7d57600080fd5b50565b611b8981611980565b8114611b9457600080fd5b5056fea264697066735822122036a8d6f017547f95c2eb5c2fcff2b0667691a6ce281f180707c4c331bac6e99464736f6c63430008000033",
  "immutableReferences": {},
  "source": "// contracts/Acte.sol\n// SPDX-License-Identifier: MIT\npragma solidity ^0.8.0;\n\ncontract Acte {\n    enum Type {\n        Mariage,\n        Naissance,\n        Deces\n    }\n    enum Status {\n        EnAttente,\n        Valide,\n        Rejete\n    }\n\n    struct ActeStruct {\n        uint id;\n        string numacte;\n        string cnipere;\n        string cnimere;\n        string cnitemoin1;\n        string cnitemoin2;\n        string dateetablissementacte;\n        uint idregistre;\n        uint idformation;\n        Type acteType;\n        Status status;\n        address createdBy;\n    }\n\n    ActeStruct[] public actes;\n    uint public nextId = 1;\n\n    event ActeCreated(uint id, string numacte, address createdBy);\n    event ActeUpdated(uint id, string numacte, Status status);\n\n    function createActe(\n        string memory numacte,\n        string memory cnipere,\n        string memory cnimere,\n        string memory cnitemoin1,\n        string memory cnitemoin2,\n        string memory dateetablissementacte,\n        uint idregistre,\n        uint idformation,\n        Type acteType\n    ) public {\n        actes.push(\n            ActeStruct(\n                nextId,\n                numacte,\n                cnipere,\n                cnimere,\n                cnitemoin1,\n                cnitemoin2,\n                dateetablissementacte,\n                idregistre,\n                idformation,\n                acteType,\n                Status.EnAttente,\n                msg.sender\n            )\n        );\n        emit ActeCreated(nextId, numacte, msg.sender);\n        nextId++;\n    }\n\n    function updateStatus(uint id, Status status) public {\n        for (uint i = 0; i < actes.length; i++) {\n            if (actes[i].id == id) {\n                actes[i].status = status;\n                emit ActeUpdated(id, actes[i].numacte, status);\n                return;\n            }\n        }\n        revert(\"Acte not found\");\n    }\n\n    function getActe(uint id) public view returns (ActeStruct memory) {\n        for (uint i = 0; i < actes.length; i++) {\n            if (actes[i].id == id) {\n                return actes[i];\n            }\n        }\n        revert(\"Acte not found\");\n    }\n}\n",
  "sourcePath": "/Users/generalstores-sarl/projects/soutenance/civils-acts-app/api/contracts/Acte.sol",
  "compiler": {
    "name": "solc",
    "version": "0.8.0+commit.c7dfd78e.Emscripten.clang"
  },
  "schemaVersion": "3.4.16",
  "updatedAt": "2024-07-02T15:00:03.836Z",
  "networkType": "ethereum",
  "devdoc": {
    "kind": "dev",
    "methods": {},
    "version": 1
  },
  "userdoc": {
    "kind": "user",
    "methods": {},
    "version": 1
  }
}